{
  "_format": "hh-sol-artifact-1",
  "contractName": "SmartForum",
  "sourceName": "contracts/smartForum/smartForum.sol",
  "abi": [
    {
      "anonymous": false,
      "inputs": [
        {
          "indexed": false,
          "internalType": "string",
          "name": "name",
          "type": "string"
        },
        {
          "indexed": false,
          "internalType": "address",
          "name": "ownerAddress",
          "type": "address"
        }
      ],
      "name": "NewForum",
      "type": "event"
    },
    {
      "inputs": [
        {
          "internalType": "uint256",
          "name": "",
          "type": "uint256"
        }
      ],
      "name": "forums",
      "outputs": [
        {
          "internalType": "string",
          "name": "name",
          "type": "string"
        },
        {
          "internalType": "address",
          "name": "ownerAddress",
          "type": "address"
        }
      ],
      "stateMutability": "view",
      "type": "function"
    },
    {
      "inputs": [],
      "name": "nameForum",
      "outputs": [
        {
          "internalType": "string",
          "name": "",
          "type": "string"
        }
      ],
      "stateMutability": "view",
      "type": "function"
    },
    {
      "inputs": [
        {
          "internalType": "string",
          "name": "name",
          "type": "string"
        }
      ],
      "name": "setForum",
      "outputs": [],
      "stateMutability": "nonpayable",
      "type": "function"
    }
  ],
  "bytecode": "0x608060405234801561001057600080fd5b50610937806100206000396000f3fe608060405234801561001057600080fd5b50600436106100415760003560e01c8063667e05a6146100465780637e3617f914610062578063efe64a1714610093575b600080fd5b610060600480360381019061005b9190610624565b6100b1565b005b61007c60048036038101906100779190610665565b6101af565b60405161008a9291906106f8565b60405180910390f35b61009b61028b565b6040516100a891906106d6565b60405180910390f35b6000339050600060405180604001604052808481526020018373ffffffffffffffffffffffffffffffffffffffff1681525090806001815401808255809150506001900390600052602060002090600202016000909190919091506000820151816000019080519060200190610128929190610504565b5060208201518160010160006101000a81548173ffffffffffffffffffffffffffffffffffffffff021916908373ffffffffffffffffffffffffffffffffffffffff16021790555050507fb611c4c4fa19e7815edee53860442ce8ca794c692bb89e306ea53de757de582682826040516101a39291906106f8565b60405180910390a15050565b600081815481106101bf57600080fd5b90600052602060002090600202016000915090508060000180546101e290610818565b80601f016020809104026020016040519081016040528092919081815260200182805461020e90610818565b801561025b5780601f106102305761010080835404028352916020019161025b565b820191906000526020600020905b81548152906001019060200180831161023e57829003601f168201915b5050505050908060010160009054906101000a900473ffffffffffffffffffffffffffffffffffffffff16905082565b6060610369600080815481106102ca577f4e487b7100000000000000000000000000000000000000000000000000000000600052603260045260246000fd5b906000526020600020906002020160000180546102e690610818565b80601f016020809104026020016040519081016040528092919081815260200182805461031290610818565b801561035f5780601f106103345761010080835404028352916020019161035f565b820191906000526020600020905b81548152906001019060200180831161034257829003601f168201915b5050505050610442565b600080815481106103a3577f4e487b7100000000000000000000000000000000000000000000000000000000600052603260045260246000fd5b906000526020600020906002020160000180546103bf90610818565b80601f01602080910402602001604051908101604052809291908181526020018280546103eb90610818565b80156104385780601f1061040d57610100808354040283529160200191610438565b820191906000526020600020905b81548152906001019060200180831161041b57829003601f168201915b5050505050905090565b6104d88160405160240161045691906106d6565b6040516020818303038152906040527f41304fac000000000000000000000000000000000000000000000000000000007bffffffffffffffffffffffffffffffffffffffffffffffffffffffff19166020820180517bffffffffffffffffffffffffffffffffffffffffffffffffffffffff83818316178352505050506104db565b50565b60008151905060006a636f6e736f6c652e6c6f679050602083016000808483855afa5050505050565b82805461051090610818565b90600052602060002090601f0160209004810192826105325760008555610579565b82601f1061054b57805160ff1916838001178555610579565b82800160010185558215610579579182015b8281111561057857825182559160200191906001019061055d565b5b509050610586919061058a565b5090565b5b808211156105a357600081600090555060010161058b565b5090565b60006105ba6105b58461074d565b610728565b9050828152602081018484840111156105d257600080fd5b6105dd8482856107d6565b509392505050565b600082601f8301126105f657600080fd5b81356106068482602086016105a7565b91505092915050565b60008135905061061e816108ea565b92915050565b60006020828403121561063657600080fd5b600082013567ffffffffffffffff81111561065057600080fd5b61065c848285016105e5565b91505092915050565b60006020828403121561067757600080fd5b60006106858482850161060f565b91505092915050565b6106978161079a565b82525050565b60006106a88261077e565b6106b28185610789565b93506106c28185602086016107e5565b6106cb816108d9565b840191505092915050565b600060208201905081810360008301526106f0818461069d565b905092915050565b60006040820190508181036000830152610712818561069d565b9050610721602083018461068e565b9392505050565b6000610732610743565b905061073e828261084a565b919050565b6000604051905090565b600067ffffffffffffffff821115610768576107676108aa565b5b610771826108d9565b9050602081019050919050565b600081519050919050565b600082825260208201905092915050565b60006107a5826107ac565b9050919050565b600073ffffffffffffffffffffffffffffffffffffffff82169050919050565b6000819050919050565b82818337600083830152505050565b60005b838110156108035780820151818401526020810190506107e8565b83811115610812576000848401525b50505050565b6000600282049050600182168061083057607f821691505b602082108114156108445761084361087b565b5b50919050565b610853826108d9565b810181811067ffffffffffffffff82111715610872576108716108aa565b5b80604052505050565b7f4e487b7100000000000000000000000000000000000000000000000000000000600052602260045260246000fd5b7f4e487b7100000000000000000000000000000000000000000000000000000000600052604160045260246000fd5b6000601f19601f8301169050919050565b6108f3816107cc565b81146108fe57600080fd5b5056fea26469706673582212206bc4e1066bd508d01eb5b1571dec55fd2c801bee8906a2c071d5d5e5ccfada5c64736f6c63430008040033",
  "linkReferences": {},
  "deployedLinkReferences": {}
}