{
  "_format": "hh-sol-artifact-1",
  "contractName": "Erama",
  "sourceName": "contracts/tokens/ERC20/erama.sol",
  "abi": [
    {
      "inputs": [],
      "stateMutability": "nonpayable",
      "type": "constructor"
    },
    {
      "anonymous": false,
      "inputs": [
        {
          "indexed": true,
          "internalType": "address",
          "name": "owner",
          "type": "address"
        },
        {
          "indexed": true,
          "internalType": "address",
          "name": "spender",
          "type": "address"
        },
        {
          "indexed": false,
          "internalType": "uint256",
          "name": "value",
          "type": "uint256"
        }
      ],
      "name": "Approval",
      "type": "event"
    },
    {
      "anonymous": false,
      "inputs": [
        {
          "indexed": true,
          "internalType": "address",
          "name": "delegator",
          "type": "address"
        },
        {
          "indexed": true,
          "internalType": "address",
          "name": "fromDelegate",
          "type": "address"
        },
        {
          "indexed": true,
          "internalType": "address",
          "name": "toDelegate",
          "type": "address"
        }
      ],
      "name": "DelegateChanged",
      "type": "event"
    },
    {
      "anonymous": false,
      "inputs": [
        {
          "indexed": true,
          "internalType": "address",
          "name": "delegate",
          "type": "address"
        },
        {
          "indexed": false,
          "internalType": "uint256",
          "name": "previousBalance",
          "type": "uint256"
        },
        {
          "indexed": false,
          "internalType": "uint256",
          "name": "newBalance",
          "type": "uint256"
        }
      ],
      "name": "DelegateVotesChanged",
      "type": "event"
    },
    {
      "anonymous": false,
      "inputs": [
        {
          "indexed": true,
          "internalType": "address",
          "name": "previousOwner",
          "type": "address"
        },
        {
          "indexed": true,
          "internalType": "address",
          "name": "newOwner",
          "type": "address"
        }
      ],
      "name": "OwnershipTransferred",
      "type": "event"
    },
    {
      "anonymous": false,
      "inputs": [
        {
          "indexed": false,
          "internalType": "address",
          "name": "account",
          "type": "address"
        }
      ],
      "name": "Paused",
      "type": "event"
    },
    {
      "anonymous": false,
      "inputs": [
        {
          "indexed": true,
          "internalType": "address",
          "name": "from",
          "type": "address"
        },
        {
          "indexed": true,
          "internalType": "address",
          "name": "to",
          "type": "address"
        },
        {
          "indexed": false,
          "internalType": "uint256",
          "name": "value",
          "type": "uint256"
        }
      ],
      "name": "Transfer",
      "type": "event"
    },
    {
      "anonymous": false,
      "inputs": [
        {
          "indexed": false,
          "internalType": "address",
          "name": "account",
          "type": "address"
        }
      ],
      "name": "Unpaused",
      "type": "event"
    },
    {
      "inputs": [],
      "name": "DOMAIN_SEPARATOR",
      "outputs": [
        {
          "internalType": "bytes32",
          "name": "",
          "type": "bytes32"
        }
      ],
      "stateMutability": "view",
      "type": "function"
    },
    {
      "inputs": [
        {
          "internalType": "address",
          "name": "owner",
          "type": "address"
        },
        {
          "internalType": "address",
          "name": "spender",
          "type": "address"
        }
      ],
      "name": "allowance",
      "outputs": [
        {
          "internalType": "uint256",
          "name": "",
          "type": "uint256"
        }
      ],
      "stateMutability": "view",
      "type": "function"
    },
    {
      "inputs": [
        {
          "internalType": "address",
          "name": "spender",
          "type": "address"
        },
        {
          "internalType": "uint256",
          "name": "amount",
          "type": "uint256"
        }
      ],
      "name": "approve",
      "outputs": [
        {
          "internalType": "bool",
          "name": "",
          "type": "bool"
        }
      ],
      "stateMutability": "nonpayable",
      "type": "function"
    },
    {
      "inputs": [
        {
          "internalType": "address",
          "name": "account",
          "type": "address"
        }
      ],
      "name": "balanceOf",
      "outputs": [
        {
          "internalType": "uint256",
          "name": "",
          "type": "uint256"
        }
      ],
      "stateMutability": "view",
      "type": "function"
    },
    {
      "inputs": [
        {
          "internalType": "address",
          "name": "account",
          "type": "address"
        },
        {
          "internalType": "uint32",
          "name": "pos",
          "type": "uint32"
        }
      ],
      "name": "checkpoints",
      "outputs": [
        {
          "components": [
            {
              "internalType": "uint32",
              "name": "fromBlock",
              "type": "uint32"
            },
            {
              "internalType": "uint224",
              "name": "votes",
              "type": "uint224"
            }
          ],
          "internalType": "struct ERC20Votes.Checkpoint",
          "name": "",
          "type": "tuple"
        }
      ],
      "stateMutability": "view",
      "type": "function"
    },
    {
      "inputs": [],
      "name": "decimals",
      "outputs": [
        {
          "internalType": "uint8",
          "name": "",
          "type": "uint8"
        }
      ],
      "stateMutability": "view",
      "type": "function"
    },
    {
      "inputs": [
        {
          "internalType": "address",
          "name": "spender",
          "type": "address"
        },
        {
          "internalType": "uint256",
          "name": "subtractedValue",
          "type": "uint256"
        }
      ],
      "name": "decreaseAllowance",
      "outputs": [
        {
          "internalType": "bool",
          "name": "",
          "type": "bool"
        }
      ],
      "stateMutability": "nonpayable",
      "type": "function"
    },
    {
      "inputs": [
        {
          "internalType": "address",
          "name": "delegatee",
          "type": "address"
        }
      ],
      "name": "delegate",
      "outputs": [],
      "stateMutability": "nonpayable",
      "type": "function"
    },
    {
      "inputs": [
        {
          "internalType": "address",
          "name": "delegatee",
          "type": "address"
        },
        {
          "internalType": "uint256",
          "name": "nonce",
          "type": "uint256"
        },
        {
          "internalType": "uint256",
          "name": "expiry",
          "type": "uint256"
        },
        {
          "internalType": "uint8",
          "name": "v",
          "type": "uint8"
        },
        {
          "internalType": "bytes32",
          "name": "r",
          "type": "bytes32"
        },
        {
          "internalType": "bytes32",
          "name": "s",
          "type": "bytes32"
        }
      ],
      "name": "delegateBySig",
      "outputs": [],
      "stateMutability": "nonpayable",
      "type": "function"
    },
    {
      "inputs": [
        {
          "internalType": "address",
          "name": "account",
          "type": "address"
        }
      ],
      "name": "delegates",
      "outputs": [
        {
          "internalType": "address",
          "name": "",
          "type": "address"
        }
      ],
      "stateMutability": "view",
      "type": "function"
    },
    {
      "inputs": [
        {
          "internalType": "uint256",
          "name": "blockNumber",
          "type": "uint256"
        }
      ],
      "name": "getPastTotalSupply",
      "outputs": [
        {
          "internalType": "uint256",
          "name": "",
          "type": "uint256"
        }
      ],
      "stateMutability": "view",
      "type": "function"
    },
    {
      "inputs": [
        {
          "internalType": "address",
          "name": "account",
          "type": "address"
        },
        {
          "internalType": "uint256",
          "name": "blockNumber",
          "type": "uint256"
        }
      ],
      "name": "getPastVotes",
      "outputs": [
        {
          "internalType": "uint256",
          "name": "",
          "type": "uint256"
        }
      ],
      "stateMutability": "view",
      "type": "function"
    },
    {
      "inputs": [
        {
          "internalType": "address",
          "name": "account",
          "type": "address"
        }
      ],
      "name": "getVotes",
      "outputs": [
        {
          "internalType": "uint256",
          "name": "",
          "type": "uint256"
        }
      ],
      "stateMutability": "view",
      "type": "function"
    },
    {
      "inputs": [
        {
          "internalType": "address",
          "name": "spender",
          "type": "address"
        },
        {
          "internalType": "uint256",
          "name": "addedValue",
          "type": "uint256"
        }
      ],
      "name": "increaseAllowance",
      "outputs": [
        {
          "internalType": "bool",
          "name": "",
          "type": "bool"
        }
      ],
      "stateMutability": "nonpayable",
      "type": "function"
    },
    {
      "inputs": [],
      "name": "initSupply",
      "outputs": [
        {
          "internalType": "uint256",
          "name": "",
          "type": "uint256"
        }
      ],
      "stateMutability": "view",
      "type": "function"
    },
    {
      "inputs": [
        {
          "internalType": "address",
          "name": "to",
          "type": "address"
        },
        {
          "internalType": "uint256",
          "name": "amount",
          "type": "uint256"
        }
      ],
      "name": "mint",
      "outputs": [],
      "stateMutability": "nonpayable",
      "type": "function"
    },
    {
      "inputs": [],
      "name": "name",
      "outputs": [
        {
          "internalType": "string",
          "name": "",
          "type": "string"
        }
      ],
      "stateMutability": "view",
      "type": "function"
    },
    {
      "inputs": [
        {
          "internalType": "address",
          "name": "owner",
          "type": "address"
        }
      ],
      "name": "nonces",
      "outputs": [
        {
          "internalType": "uint256",
          "name": "",
          "type": "uint256"
        }
      ],
      "stateMutability": "view",
      "type": "function"
    },
    {
      "inputs": [
        {
          "internalType": "address",
          "name": "account",
          "type": "address"
        }
      ],
      "name": "numCheckpoints",
      "outputs": [
        {
          "internalType": "uint32",
          "name": "",
          "type": "uint32"
        }
      ],
      "stateMutability": "view",
      "type": "function"
    },
    {
      "inputs": [],
      "name": "owner",
      "outputs": [
        {
          "internalType": "address",
          "name": "",
          "type": "address"
        }
      ],
      "stateMutability": "view",
      "type": "function"
    },
    {
      "inputs": [],
      "name": "pause",
      "outputs": [],
      "stateMutability": "nonpayable",
      "type": "function"
    },
    {
      "inputs": [],
      "name": "paused",
      "outputs": [
        {
          "internalType": "bool",
          "name": "",
          "type": "bool"
        }
      ],
      "stateMutability": "view",
      "type": "function"
    },
    {
      "inputs": [
        {
          "internalType": "address",
          "name": "owner",
          "type": "address"
        },
        {
          "internalType": "address",
          "name": "spender",
          "type": "address"
        },
        {
          "internalType": "uint256",
          "name": "value",
          "type": "uint256"
        },
        {
          "internalType": "uint256",
          "name": "deadline",
          "type": "uint256"
        },
        {
          "internalType": "uint8",
          "name": "v",
          "type": "uint8"
        },
        {
          "internalType": "bytes32",
          "name": "r",
          "type": "bytes32"
        },
        {
          "internalType": "bytes32",
          "name": "s",
          "type": "bytes32"
        }
      ],
      "name": "permit",
      "outputs": [],
      "stateMutability": "nonpayable",
      "type": "function"
    },
    {
      "inputs": [],
      "name": "renounceOwnership",
      "outputs": [],
      "stateMutability": "nonpayable",
      "type": "function"
    },
    {
      "inputs": [],
      "name": "symbol",
      "outputs": [
        {
          "internalType": "string",
          "name": "",
          "type": "string"
        }
      ],
      "stateMutability": "view",
      "type": "function"
    },
    {
      "inputs": [],
      "name": "totalSupply",
      "outputs": [
        {
          "internalType": "uint256",
          "name": "",
          "type": "uint256"
        }
      ],
      "stateMutability": "view",
      "type": "function"
    },
    {
      "inputs": [
        {
          "internalType": "address",
          "name": "recipient",
          "type": "address"
        },
        {
          "internalType": "uint256",
          "name": "amount",
          "type": "uint256"
        }
      ],
      "name": "transfer",
      "outputs": [
        {
          "internalType": "bool",
          "name": "",
          "type": "bool"
        }
      ],
      "stateMutability": "nonpayable",
      "type": "function"
    },
    {
      "inputs": [
        {
          "internalType": "address",
          "name": "sender",
          "type": "address"
        },
        {
          "internalType": "address",
          "name": "recipient",
          "type": "address"
        },
        {
          "internalType": "uint256",
          "name": "amount",
          "type": "uint256"
        }
      ],
      "name": "transferFrom",
      "outputs": [
        {
          "internalType": "bool",
          "name": "",
          "type": "bool"
        }
      ],
      "stateMutability": "nonpayable",
      "type": "function"
    },
    {
      "inputs": [
        {
          "internalType": "address",
          "name": "newOwner",
          "type": "address"
        }
      ],
      "name": "transferOwnership",
      "outputs": [],
      "stateMutability": "nonpayable",
      "type": "function"
    },
    {
      "inputs": [],
      "name": "unpause",
      "outputs": [],
      "stateMutability": "nonpayable",
      "type": "function"
    }
  ],
  "bytecode": "0x6101606040527f6e71edae12b1b97f4d1f60370fef10105fa2faae0126114a169c64845d6126c961014090815250606f600a553480156200003f57600080fd5b506040518060400160405280600581526020017f4572616d61000000000000000000000000000000000000000000000000000000815250806040518060400160405280600181526020017f31000000000000000000000000000000000000000000000000000000000000008152506040518060400160405280600581526020017f4572616d610000000000000000000000000000000000000000000000000000008152506040518060400160405280600381526020017f414d41000000000000000000000000000000000000000000000000000000000081525081600390805190602001906200013192919062000dc4565b5080600490805190602001906200014a92919062000dc4565b5050506000600560006101000a81548160ff021916908315150217905550620001886200017c6200029660201b60201c565b6200029e60201b60201c565b60008280519060200120905060008280519060200120905060007f8b73c3c69bb8fe3d512ecc4cf759cc79239f7b179b0ffacaa9a75d522b39400f90508260e081815250508161010081815250504660a08181525050620001f18184846200036460201b60201c565b608081815250503073ffffffffffffffffffffffffffffffffffffffff1660c08173ffffffffffffffffffffffffffffffffffffffff1660601b815250508061012081815250505050505050506200029073f39fd6e51aad88f6f4ce6ab8827279cfffb9226662000267620003a060201b60201c565b601062000275919062001184565b600a54620002849190620012c1565b620003a960201b60201c565b62001592565b600033905090565b6000600560019054906101000a900473ffffffffffffffffffffffffffffffffffffffff16905081600560016101000a81548173ffffffffffffffffffffffffffffffffffffffff021916908373ffffffffffffffffffffffffffffffffffffffff1602179055508173ffffffffffffffffffffffffffffffffffffffff168173ffffffffffffffffffffffffffffffffffffffff167f8be0079c531659141344cd1fd0a4f28419497f9722a3daafe3b4186f6b6457e060405160405180910390a35050565b600083838346306040516020016200038195949392919062000f6a565b6040516020818303038152906040528051906020012090509392505050565b60006012905090565b620003c08282620003c460201b620015141760201c565b5050565b620003db82826200048260201b620015a11760201c565b620003eb620005fb60201b60201c565b7bffffffffffffffffffffffffffffffffffffffffffffffffffffffff16620004196200061f60201b60201c565b11156200045d576040517f08c379a0000000000000000000000000000000000000000000000000000000008152600401620004549062000fe9565b60405180910390fd5b6200047c60096200062960201b6200170117836200064160201b60201c565b50505050565b600073ffffffffffffffffffffffffffffffffffffffff168273ffffffffffffffffffffffffffffffffffffffff161415620004f5576040517f08c379a0000000000000000000000000000000000000000000000000000000008152600401620004ec906200104f565b60405180910390fd5b62000509600083836200095e60201b60201c565b80600260008282546200051d9190620010cc565b92505081905550806000808473ffffffffffffffffffffffffffffffffffffffff1673ffffffffffffffffffffffffffffffffffffffff1681526020019081526020016000206000828254620005749190620010cc565b925050819055508173ffffffffffffffffffffffffffffffffffffffff16600073ffffffffffffffffffffffffffffffffffffffff167fddf252ad1be2c89b69c2b068fc378daa952ba7f163c4a11628f55a4df523b3ef83604051620005db919062001071565b60405180910390a3620005f760008383620009ce60201b60201c565b5050565b60007bffffffffffffffffffffffffffffffffffffffffffffffffffffffff905090565b6000600254905090565b60008183620006399190620010cc565b905092915050565b60008060008580549050905060008114620006da578560018262000666919062001322565b815481106200069e577f4e487b7100000000000000000000000000000000000000000000000000000000600052603260045260246000fd5b9060005260206000200160000160049054906101000a90047bffffffffffffffffffffffffffffffffffffffffffffffffffffffff16620006dd565b60005b7bffffffffffffffffffffffffffffffffffffffffffffffffffffffff1692506200070983858760201c565b9150600081118015620007865750438660018362000728919062001322565b8154811062000760577f4e487b7100000000000000000000000000000000000000000000000000000000600052603260045260246000fd5b9060005260206000200160000160009054906101000a900463ffffffff1663ffffffff16145b156200084b57620007a282620009eb60201b620017171760201c565b86600183620007b2919062001322565b81548110620007ea577f4e487b7100000000000000000000000000000000000000000000000000000000600052603260045260246000fd5b9060005260206000200160000160046101000a8154817bffffffffffffffffffffffffffffffffffffffffffffffffffffffff02191690837bffffffffffffffffffffffffffffffffffffffffffffffffffffffff16021790555062000955565b8560405180604001604052806200086d4362000a5960201b620017821760201c565b63ffffffff1681526020016200088e85620009eb60201b620017171760201c565b7bffffffffffffffffffffffffffffffffffffffffffffffffffffffff168152509080600181540180825580915050600190039060005260206000200160009091909190915060008201518160000160006101000a81548163ffffffff021916908363ffffffff16021790555060208201518160000160046101000a8154817bffffffffffffffffffffffffffffffffffffffffffffffffffffffff02191690837bffffffffffffffffffffffffffffffffffffffffffffffffffffffff16021790555050505b50935093915050565b6200096e62000aaf60201b60201c565b15620009b1576040517f08c379a0000000000000000000000000000000000000000000000000000000008152600401620009a89062000fc7565b60405180910390fd5b620009c983838362000ac660201b620017d51760201c565b505050565b620009e683838362000acb60201b620017da1760201c565b505050565b60007bffffffffffffffffffffffffffffffffffffffffffffffffffffffff801682111562000a51576040517f08c379a000000000000000000000000000000000000000000000000000000000815260040162000a48906200100b565b60405180910390fd5b819050919050565b600063ffffffff801682111562000aa7576040517f08c379a000000000000000000000000000000000000000000000000000000000815260040162000a9e906200102d565b60405180910390fd5b819050919050565b6000600560009054906101000a900460ff16905090565b505050565b62000ae383838362000b1b60201b620018051760201c565b62000b1662000af88462000b2060201b60201c565b62000b098462000b2060201b60201c565b8362000b8960201b60201c565b505050565b505050565b6000600760008373ffffffffffffffffffffffffffffffffffffffff1673ffffffffffffffffffffffffffffffffffffffff16815260200190815260200160002060009054906101000a900473ffffffffffffffffffffffffffffffffffffffff169050919050565b8173ffffffffffffffffffffffffffffffffffffffff168373ffffffffffffffffffffffffffffffffffffffff161415801562000bc65750600081115b1562000da757600073ffffffffffffffffffffffffffffffffffffffff168373ffffffffffffffffffffffffffffffffffffffff161462000cb95760008062000c60600860008773ffffffffffffffffffffffffffffffffffffffff1673ffffffffffffffffffffffffffffffffffffffff16815260200190815260200160002062000dac60201b6200180a17856200064160201b60201c565b915091508473ffffffffffffffffffffffffffffffffffffffff167fdec2bacdd2f05b59de34da9b523dff8be42e5e38e818c82fdb0bae774387a724838360405162000cae9291906200108e565b60405180910390a250505b600073ffffffffffffffffffffffffffffffffffffffff168273ffffffffffffffffffffffffffffffffffffffff161462000da65760008062000d4d600860008673ffffffffffffffffffffffffffffffffffffffff1673ffffffffffffffffffffffffffffffffffffffff1681526020019081526020016000206200062960201b6200170117856200064160201b60201c565b915091508373ffffffffffffffffffffffffffffffffffffffff167fdec2bacdd2f05b59de34da9b523dff8be42e5e38e818c82fdb0bae774387a724838360405162000d9b9291906200108e565b60405180910390a250505b5b505050565b6000818362000dbc919062001322565b905092915050565b82805462000dd290620013b2565b90600052602060002090601f01602090048101928262000df6576000855562000e42565b82601f1062000e1157805160ff191683800117855562000e42565b8280016001018555821562000e42579182015b8281111562000e4157825182559160200191906001019062000e24565b5b50905062000e51919062000e55565b5090565b5b8082111562000e7057600081600090555060010162000e56565b5090565b62000e7f816200135d565b82525050565b62000e908162001371565b82525050565b600062000ea5601083620010bb565b915062000eb28262001453565b602082019050919050565b600062000ecc603083620010bb565b915062000ed9826200147c565b604082019050919050565b600062000ef3602783620010bb565b915062000f0082620014cb565b604082019050919050565b600062000f1a602683620010bb565b915062000f27826200151a565b604082019050919050565b600062000f41601f83620010bb565b915062000f4e8262001569565b602082019050919050565b62000f64816200139b565b82525050565b600060a08201905062000f81600083018862000e85565b62000f90602083018762000e85565b62000f9f604083018662000e85565b62000fae606083018562000f59565b62000fbd608083018462000e74565b9695505050505050565b6000602082019050818103600083015262000fe28162000e96565b9050919050565b60006020820190508181036000830152620010048162000ebd565b9050919050565b60006020820190508181036000830152620010268162000ee4565b9050919050565b60006020820190508181036000830152620010488162000f0b565b9050919050565b600060208201905081810360008301526200106a8162000f32565b9050919050565b600060208201905062001088600083018462000f59565b92915050565b6000604082019050620010a5600083018562000f59565b620010b4602083018462000f59565b9392505050565b600082825260208201905092915050565b6000620010d9826200139b565b9150620010e6836200139b565b9250827fffffffffffffffffffffffffffffffffffffffffffffffffffffffffffffffff038211156200111e576200111d620013e8565b5b828201905092915050565b6000808291508390505b60018511156200117b57808604811115620011535762001152620013e8565b5b6001851615620011635780820291505b8081029050620011738562001446565b945062001133565b94509492505050565b600062001191826200139b565b91506200119e83620013a5565b9250620011cd7fffffffffffffffffffffffffffffffffffffffffffffffffffffffffffffffff8484620011d5565b905092915050565b600082620011e75760019050620012ba565b81620011f75760009050620012ba565b81600181146200121057600281146200121b5762001251565b6001915050620012ba565b60ff84111562001230576200122f620013e8565b5b8360020a9150848211156200124a5762001249620013e8565b5b50620012ba565b5060208310610133831016604e8410600b84101617156200128b5782820a905083811115620012855762001284620013e8565b5b620012ba565b6200129a848484600162001129565b92509050818404811115620012b457620012b3620013e8565b5b81810290505b9392505050565b6000620012ce826200139b565b9150620012db836200139b565b9250817fffffffffffffffffffffffffffffffffffffffffffffffffffffffffffffffff0483118215151615620013175762001316620013e8565b5b828202905092915050565b60006200132f826200139b565b91506200133c836200139b565b925082821015620013525762001351620013e8565b5b828203905092915050565b60006200136a826200137b565b9050919050565b6000819050919050565b600073ffffffffffffffffffffffffffffffffffffffff82169050919050565b6000819050919050565b600060ff82169050919050565b60006002820490506001821680620013cb57607f821691505b60208210811415620013e257620013e162001417565b5b50919050565b7f4e487b7100000000000000000000000000000000000000000000000000000000600052601160045260246000fd5b7f4e487b7100000000000000000000000000000000000000000000000000000000600052602260045260246000fd5b60008160011c9050919050565b7f5061757361626c653a2070617573656400000000000000000000000000000000600082015250565b7f4552433230566f7465733a20746f74616c20737570706c79207269736b73206f60008201527f766572666c6f77696e6720766f74657300000000000000000000000000000000602082015250565b7f53616665436173743a2076616c756520646f65736e27742066697420696e203260008201527f3234206269747300000000000000000000000000000000000000000000000000602082015250565b7f53616665436173743a2076616c756520646f65736e27742066697420696e203360008201527f3220626974730000000000000000000000000000000000000000000000000000602082015250565b7f45524332303a206d696e7420746f20746865207a65726f206164647265737300600082015250565b60805160a05160c05160601c60e051610100516101205161014051614360620015f0600039600061116401526000611d2201526000611d6401526000611d4301526000611c7801526000611cce01526000611cf701526143606000f3fe608060405234801561001057600080fd5b50600436106101da5760003560e01c8063715018a6116101045780639ab24eb0116100a2578063d505accf11610071578063d505accf14610581578063dd62ed3e1461059d578063f1127ed8146105cd578063f2fde38b146105fd576101da565b80639ab24eb0146104d5578063a457c2d714610505578063a9059cbb14610535578063c3cda52014610565576101da565b80638da5cb5b116100de5780638da5cb5b1461044b5780638e539e8c1461046957806395d89b411461049957806397d63f93146104b7576101da565b8063715018a6146104075780637ecebe00146104115780638456cb5914610441576101da565b80633a46b1a81161017c5780635c19a95c1161014b5780635c19a95c1461036d5780635c975abb146103895780636fcfff45146103a757806370a08231146103d7576101da565b80633a46b1a8146102e75780633f4ba83a1461031757806340c10f1914610321578063587cde1e1461033d576101da565b806323b872dd116101b857806323b872dd1461024b578063313ce5671461027b5780633644e5151461029957806339509351146102b7576101da565b806306fdde03146101df578063095ea7b3146101fd57806318160ddd1461022d575b600080fd5b6101e7610619565b6040516101f4919061368b565b60405180910390f35b61021760048036038101906102129190612f39565b6106ab565b6040516102249190613517565b60405180910390f35b6102356106c9565b60405161024291906139c8565b60405180910390f35b61026560048036038101906102609190612e4c565b6106d3565b6040516102729190613517565b60405180910390f35b6102836107cb565b6040516102909190613a27565b60405180910390f35b6102a16107d4565b6040516102ae9190613532565b60405180910390f35b6102d160048036038101906102cc9190612f39565b6107e3565b6040516102de9190613517565b60405180910390f35b61030160048036038101906102fc9190612f39565b61088f565b60405161030e91906139c8565b60405180910390f35b61031f610923565b005b61033b60048036038101906103369190612f39565b6109a9565b005b61035760048036038101906103529190612de7565b610a33565b60405161036491906134fc565b60405180910390f35b61038760048036038101906103829190612de7565b610a9c565b005b610391610ab0565b60405161039e9190613517565b60405180910390f35b6103c160048036038101906103bc9190612de7565b610ac7565b6040516103ce9190613a0c565b60405180910390f35b6103f160048036038101906103ec9190612de7565b610b1b565b6040516103fe91906139c8565b60405180910390f35b61040f610b63565b005b61042b60048036038101906104269190612de7565b610beb565b60405161043891906139c8565b60405180910390f35b610449610c3b565b005b610453610cc1565b60405161046091906134fc565b60405180910390f35b610483600480360381019061047e919061303a565b610ceb565b60405161049091906139c8565b60405180910390f35b6104a1610d41565b6040516104ae919061368b565b60405180910390f35b6104bf610dd3565b6040516104cc91906139c8565b60405180910390f35b6104ef60048036038101906104ea9190612de7565b610dd9565b6040516104fc91906139c8565b60405180910390f35b61051f600480360381019061051a9190612f39565b610f10565b60405161052c9190613517565b60405180910390f35b61054f600480360381019061054a9190612f39565b610ffb565b60405161055c9190613517565b60405180910390f35b61057f600480360381019061057a9190612f75565b611019565b005b61059b60048036038101906105969190612e9b565b61111d565b005b6105b760048036038101906105b29190612e10565b61125f565b6040516105c491906139c8565b60405180910390f35b6105e760048036038101906105e29190612ffe565b6112e6565b6040516105f491906139ad565b60405180910390f35b61061760048036038101906106129190612de7565b61141c565b005b60606003805461062890613bee565b80601f016020809104026020016040519081016040528092919081815260200182805461065490613bee565b80156106a15780601f10610676576101008083540402835291602001916106a1565b820191906000526020600020905b81548152906001019060200180831161068457829003601f168201915b5050505050905090565b60006106bf6106b8611820565b8484611828565b6001905092915050565b6000600254905090565b60006106e08484846119f3565b6000600160008673ffffffffffffffffffffffffffffffffffffffff1673ffffffffffffffffffffffffffffffffffffffff168152602001908152602001600020600061072b611820565b73ffffffffffffffffffffffffffffffffffffffff1673ffffffffffffffffffffffffffffffffffffffff168152602001908152602001600020549050828110156107ab576040517f08c379a00000000000000000000000000000000000000000000000000000000081526004016107a29061388d565b60405180910390fd5b6107bf856107b7611820565b858403611828565b60019150509392505050565b60006012905090565b60006107de611c74565b905090565b60006108856107f0611820565b8484600160006107fe611820565b73ffffffffffffffffffffffffffffffffffffffff1673ffffffffffffffffffffffffffffffffffffffff16815260200190815260200160002060008873ffffffffffffffffffffffffffffffffffffffff1673ffffffffffffffffffffffffffffffffffffffff168152602001908152602001600020546108809190613a69565b611828565b6001905092915050565b60004382106108d3576040517f08c379a00000000000000000000000000000000000000000000000000000000081526004016108ca906136ed565b60405180910390fd5b61091b600860008573ffffffffffffffffffffffffffffffffffffffff1673ffffffffffffffffffffffffffffffffffffffff16815260200190815260200160002083611d8e565b905092915050565b61092b611820565b73ffffffffffffffffffffffffffffffffffffffff16610949610cc1565b73ffffffffffffffffffffffffffffffffffffffff161461099f576040517f08c379a0000000000000000000000000000000000000000000000000000000008152600401610996906138cd565b60405180910390fd5b6109a7611ee6565b565b6109b1611820565b73ffffffffffffffffffffffffffffffffffffffff166109cf610cc1565b73ffffffffffffffffffffffffffffffffffffffff1614610a25576040517f08c379a0000000000000000000000000000000000000000000000000000000008152600401610a1c906138cd565b60405180910390fd5b610a2f8282611f88565b5050565b6000600760008373ffffffffffffffffffffffffffffffffffffffff1673ffffffffffffffffffffffffffffffffffffffff16815260200190815260200160002060009054906101000a900473ffffffffffffffffffffffffffffffffffffffff169050919050565b610aad610aa7611820565b82611f96565b50565b6000600560009054906101000a900460ff16905090565b6000610b14600860008473ffffffffffffffffffffffffffffffffffffffff1673ffffffffffffffffffffffffffffffffffffffff16815260200190815260200160002080549050611782565b9050919050565b60008060008373ffffffffffffffffffffffffffffffffffffffff1673ffffffffffffffffffffffffffffffffffffffff168152602001908152602001600020549050919050565b610b6b611820565b73ffffffffffffffffffffffffffffffffffffffff16610b89610cc1565b73ffffffffffffffffffffffffffffffffffffffff1614610bdf576040517f08c379a0000000000000000000000000000000000000000000000000000000008152600401610bd6906138cd565b60405180910390fd5b610be960006120b0565b565b6000610c34600660008473ffffffffffffffffffffffffffffffffffffffff1673ffffffffffffffffffffffffffffffffffffffff168152602001908152602001600020612176565b9050919050565b610c43611820565b73ffffffffffffffffffffffffffffffffffffffff16610c61610cc1565b73ffffffffffffffffffffffffffffffffffffffff1614610cb7576040517f08c379a0000000000000000000000000000000000000000000000000000000008152600401610cae906138cd565b60405180910390fd5b610cbf612184565b565b6000600560019054906101000a900473ffffffffffffffffffffffffffffffffffffffff16905090565b6000438210610d2f576040517f08c379a0000000000000000000000000000000000000000000000000000000008152600401610d26906136ed565b60405180910390fd5b610d3a600983611d8e565b9050919050565b606060048054610d5090613bee565b80601f0160208091040260200160405190810160405280929190818152602001828054610d7c90613bee565b8015610dc95780601f10610d9e57610100808354040283529160200191610dc9565b820191906000526020600020905b815481529060010190602001808311610dac57829003601f168201915b5050505050905090565b600a5481565b600080600860008473ffffffffffffffffffffffffffffffffffffffff1673ffffffffffffffffffffffffffffffffffffffff16815260200190815260200160002080549050905060008114610ee757600860008473ffffffffffffffffffffffffffffffffffffffff1673ffffffffffffffffffffffffffffffffffffffff168152602001908152602001600020600182610e759190613af0565b81548110610eac577f4e487b7100000000000000000000000000000000000000000000000000000000600052603260045260246000fd5b9060005260206000200160000160049054906101000a90047bffffffffffffffffffffffffffffffffffffffffffffffffffffffff16610eea565b60005b7bffffffffffffffffffffffffffffffffffffffffffffffffffffffff16915050919050565b60008060016000610f1f611820565b73ffffffffffffffffffffffffffffffffffffffff1673ffffffffffffffffffffffffffffffffffffffff16815260200190815260200160002060008573ffffffffffffffffffffffffffffffffffffffff1673ffffffffffffffffffffffffffffffffffffffff16815260200190815260200160002054905082811015610fdc576040517f08c379a0000000000000000000000000000000000000000000000000000000008152600401610fd39061396d565b60405180910390fd5b610ff0610fe7611820565b85858403611828565b600191505092915050565b600061100f611008611820565b84846119f3565b6001905092915050565b8342111561105c576040517f08c379a00000000000000000000000000000000000000000000000000000000081526004016110539061372d565b60405180910390fd5b60006110be6110b67fe48329057bfd03d55e49b547132e39cffd9c1820ad7b9d4c5307691425d15adf89898960405160200161109b94939291906135ae565b60405160208183030381529060405280519060200120612227565b858585612241565b90506110c98161226c565b861461110a576040517f08c379a00000000000000000000000000000000000000000000000000000000081526004016111019061376d565b60405180910390fd5b6111148188611f96565b50505050505050565b83421115611160576040517f08c379a0000000000000000000000000000000000000000000000000000000008152600401611157906137cd565b60405180910390fd5b60007f000000000000000000000000000000000000000000000000000000000000000088888861118f8c61226c565b896040516020016111a59695949392919061354d565b60405160208183030381529060405280519060200120905060006111c882612227565b905060006111d882878787612241565b90508973ffffffffffffffffffffffffffffffffffffffff168173ffffffffffffffffffffffffffffffffffffffff1614611248576040517f08c379a000000000000000000000000000000000000000000000000000000000815260040161123f9061386d565b60405180910390fd5b6112538a8a8a611828565b50505050505050505050565b6000600160008473ffffffffffffffffffffffffffffffffffffffff1673ffffffffffffffffffffffffffffffffffffffff16815260200190815260200160002060008373ffffffffffffffffffffffffffffffffffffffff1673ffffffffffffffffffffffffffffffffffffffff16815260200190815260200160002054905092915050565b6112ee612d40565b600860008473ffffffffffffffffffffffffffffffffffffffff1673ffffffffffffffffffffffffffffffffffffffff1681526020019081526020016000208263ffffffff168154811061136b577f4e487b7100000000000000000000000000000000000000000000000000000000600052603260045260246000fd5b906000526020600020016040518060400160405290816000820160009054906101000a900463ffffffff1663ffffffff1663ffffffff1681526020016000820160049054906101000a90047bffffffffffffffffffffffffffffffffffffffffffffffffffffffff167bffffffffffffffffffffffffffffffffffffffffffffffffffffffff167bffffffffffffffffffffffffffffffffffffffffffffffffffffffff1681525050905092915050565b611424611820565b73ffffffffffffffffffffffffffffffffffffffff16611442610cc1565b73ffffffffffffffffffffffffffffffffffffffff1614611498576040517f08c379a000000000000000000000000000000000000000000000000000000000815260040161148f906138cd565b60405180910390fd5b600073ffffffffffffffffffffffffffffffffffffffff168173ffffffffffffffffffffffffffffffffffffffff161415611508576040517f08c379a00000000000000000000000000000000000000000000000000000000081526004016114ff9061378d565b60405180910390fd5b611511816120b0565b50565b61151e82826115a1565b6115266122ca565b7bffffffffffffffffffffffffffffffffffffffffffffffffffffffff1661154c6106c9565b111561158d576040517f08c379a0000000000000000000000000000000000000000000000000000000008152600401611584906138ad565b60405180910390fd5b61159b6009611701836122ee565b50505050565b600073ffffffffffffffffffffffffffffffffffffffff168273ffffffffffffffffffffffffffffffffffffffff161415611611576040517f08c379a00000000000000000000000000000000000000000000000000000000081526004016116089061398d565b60405180910390fd5b61161d600083836125d8565b806002600082825461162f9190613a69565b92505081905550806000808473ffffffffffffffffffffffffffffffffffffffff1673ffffffffffffffffffffffffffffffffffffffff16815260200190815260200160002060008282546116849190613a69565b925050819055508173ffffffffffffffffffffffffffffffffffffffff16600073ffffffffffffffffffffffffffffffffffffffff167fddf252ad1be2c89b69c2b068fc378daa952ba7f163c4a11628f55a4df523b3ef836040516116e991906139c8565b60405180910390a36116fd60008383612630565b5050565b6000818361170f9190613a69565b905092915050565b60007bffffffffffffffffffffffffffffffffffffffffffffffffffffffff801682111561177a576040517f08c379a0000000000000000000000000000000000000000000000000000000008152600401611771906138ed565b60405180910390fd5b819050919050565b600063ffffffff80168211156117cd576040517f08c379a00000000000000000000000000000000000000000000000000000000081526004016117c49061392d565b60405180910390fd5b819050919050565b505050565b6117e5838383611805565b6118006117f184610a33565b6117fa84610a33565b83612640565b505050565b505050565b600081836118189190613af0565b905092915050565b600033905090565b600073ffffffffffffffffffffffffffffffffffffffff168373ffffffffffffffffffffffffffffffffffffffff161415611898576040517f08c379a000000000000000000000000000000000000000000000000000000000815260040161188f9061394d565b60405180910390fd5b600073ffffffffffffffffffffffffffffffffffffffff168273ffffffffffffffffffffffffffffffffffffffff161415611908576040517f08c379a00000000000000000000000000000000000000000000000000000000081526004016118ff906137ad565b60405180910390fd5b80600160008573ffffffffffffffffffffffffffffffffffffffff1673ffffffffffffffffffffffffffffffffffffffff16815260200190815260200160002060008473ffffffffffffffffffffffffffffffffffffffff1673ffffffffffffffffffffffffffffffffffffffff168152602001908152602001600020819055508173ffffffffffffffffffffffffffffffffffffffff168373ffffffffffffffffffffffffffffffffffffffff167f8c5be1e5ebec7d5bd14f71427d1e84f3dd0314c0f7b2291e5b200ac8c7c3b925836040516119e691906139c8565b60405180910390a3505050565b600073ffffffffffffffffffffffffffffffffffffffff168373ffffffffffffffffffffffffffffffffffffffff161415611a63576040517f08c379a0000000000000000000000000000000000000000000000000000000008152600401611a5a9061390d565b60405180910390fd5b600073ffffffffffffffffffffffffffffffffffffffff168273ffffffffffffffffffffffffffffffffffffffff161415611ad3576040517f08c379a0000000000000000000000000000000000000000000000000000000008152600401611aca906136cd565b60405180910390fd5b611ade8383836125d8565b60008060008573ffffffffffffffffffffffffffffffffffffffff1673ffffffffffffffffffffffffffffffffffffffff16815260200190815260200160002054905081811015611b64576040517f08c379a0000000000000000000000000000000000000000000000000000000008152600401611b5b906137ed565b60405180910390fd5b8181036000808673ffffffffffffffffffffffffffffffffffffffff1673ffffffffffffffffffffffffffffffffffffffff16815260200190815260200160002081905550816000808573ffffffffffffffffffffffffffffffffffffffff1673ffffffffffffffffffffffffffffffffffffffff1681526020019081526020016000206000828254611bf79190613a69565b925050819055508273ffffffffffffffffffffffffffffffffffffffff168473ffffffffffffffffffffffffffffffffffffffff167fddf252ad1be2c89b69c2b068fc378daa952ba7f163c4a11628f55a4df523b3ef84604051611c5b91906139c8565b60405180910390a3611c6e848484612630565b50505050565b60007f000000000000000000000000000000000000000000000000000000000000000073ffffffffffffffffffffffffffffffffffffffff163073ffffffffffffffffffffffffffffffffffffffff16148015611cf057507f000000000000000000000000000000000000000000000000000000000000000046145b15611d1d577f00000000000000000000000000000000000000000000000000000000000000009050611d8b565b611d887f00000000000000000000000000000000000000000000000000000000000000007f00000000000000000000000000000000000000000000000000000000000000007f0000000000000000000000000000000000000000000000000000000000000000612839565b90505b90565b6000808380549050905060005b81811015611e33576000611daf8284612873565b905084868281548110611deb577f4e487b7100000000000000000000000000000000000000000000000000000000600052603260045260246000fd5b9060005260206000200160000160009054906101000a900463ffffffff1663ffffffff161115611e1d57809250611e2d565b600181611e2a9190613a69565b91505b50611d9b565b60008214611ebb5784600183611e499190613af0565b81548110611e80577f4e487b7100000000000000000000000000000000000000000000000000000000600052603260045260246000fd5b9060005260206000200160000160049054906101000a90047bffffffffffffffffffffffffffffffffffffffffffffffffffffffff16611ebe565b60005b7bffffffffffffffffffffffffffffffffffffffffffffffffffffffff169250505092915050565b611eee610ab0565b611f2d576040517f08c379a0000000000000000000000000000000000000000000000000000000008152600401611f249061370d565b60405180910390fd5b6000600560006101000a81548160ff0219169083151502179055507f5db9ee0a495bf2e6ff9c91a7834c1ba4fdd244a5e8aa4e537bd38aeae4b073aa611f71611820565b604051611f7e91906134fc565b60405180910390a1565b611f928282611514565b5050565b6000611fa183610a33565b90506000611fae84610b1b565b905082600760008673ffffffffffffffffffffffffffffffffffffffff1673ffffffffffffffffffffffffffffffffffffffff16815260200190815260200160002060006101000a81548173ffffffffffffffffffffffffffffffffffffffff021916908373ffffffffffffffffffffffffffffffffffffffff1602179055508273ffffffffffffffffffffffffffffffffffffffff168273ffffffffffffffffffffffffffffffffffffffff168573ffffffffffffffffffffffffffffffffffffffff167f3134e8a2e6d97e929a7e54011ea5485d7d196dd5f0ba4d4ef95803e8e3fc257f60405160405180910390a46120aa828483612640565b50505050565b6000600560019054906101000a900473ffffffffffffffffffffffffffffffffffffffff16905081600560016101000a81548173ffffffffffffffffffffffffffffffffffffffff021916908373ffffffffffffffffffffffffffffffffffffffff1602179055508173ffffffffffffffffffffffffffffffffffffffff168173ffffffffffffffffffffffffffffffffffffffff167f8be0079c531659141344cd1fd0a4f28419497f9722a3daafe3b4186f6b6457e060405160405180910390a35050565b600081600001549050919050565b61218c610ab0565b156121cc576040517f08c379a00000000000000000000000000000000000000000000000000000000081526004016121c39061382d565b60405180910390fd5b6001600560006101000a81548160ff0219169083151502179055507f62e78cea01bee320cd4e420270b5ea74000d11b0c9f74754ebdbfc544b05a258612210611820565b60405161221d91906134fc565b60405180910390a1565b600061223a612234611c74565b83612899565b9050919050565b6000806000612252878787876128cc565b9150915061225f816129d9565b8192505050949350505050565b600080600660008473ffffffffffffffffffffffffffffffffffffffff1673ffffffffffffffffffffffffffffffffffffffff16815260200190815260200160002090506122b981612176565b91506122c481612d2a565b50919050565b60007bffffffffffffffffffffffffffffffffffffffffffffffffffffffff905090565b6000806000858054905090506000811461238257856001826123109190613af0565b81548110612347577f4e487b7100000000000000000000000000000000000000000000000000000000600052603260045260246000fd5b9060005260206000200160000160049054906101000a90047bffffffffffffffffffffffffffffffffffffffffffffffffffffffff16612385565b60005b7bffffffffffffffffffffffffffffffffffffffffffffffffffffffff1692506123b383858763ffffffff16565b915060008111801561242c575043866001836123cf9190613af0565b81548110612406577f4e487b7100000000000000000000000000000000000000000000000000000000600052603260045260246000fd5b9060005260206000200160000160009054906101000a900463ffffffff1663ffffffff16145b156124df5761243a82611717565b866001836124489190613af0565b8154811061247f577f4e487b7100000000000000000000000000000000000000000000000000000000600052603260045260246000fd5b9060005260206000200160000160046101000a8154817bffffffffffffffffffffffffffffffffffffffffffffffffffffffff02191690837bffffffffffffffffffffffffffffffffffffffffffffffffffffffff1602179055506125cf565b8560405180604001604052806124f443611782565b63ffffffff16815260200161250885611717565b7bffffffffffffffffffffffffffffffffffffffffffffffffffffffff168152509080600181540180825580915050600190039060005260206000200160009091909190915060008201518160000160006101000a81548163ffffffff021916908363ffffffff16021790555060208201518160000160046101000a8154817bffffffffffffffffffffffffffffffffffffffffffffffffffffffff02191690837bffffffffffffffffffffffffffffffffffffffffffffffffffffffff16021790555050505b50935093915050565b6125e0610ab0565b15612620576040517f08c379a00000000000000000000000000000000000000000000000000000000081526004016126179061382d565b60405180910390fd5b61262b8383836117d5565b505050565b61263b8383836117da565b505050565b8173ffffffffffffffffffffffffffffffffffffffff168373ffffffffffffffffffffffffffffffffffffffff161415801561267c5750600081115b1561283457600073ffffffffffffffffffffffffffffffffffffffff168373ffffffffffffffffffffffffffffffffffffffff161461275a57600080612703600860008773ffffffffffffffffffffffffffffffffffffffff1673ffffffffffffffffffffffffffffffffffffffff16815260200190815260200160002061180a856122ee565b915091508473ffffffffffffffffffffffffffffffffffffffff167fdec2bacdd2f05b59de34da9b523dff8be42e5e38e818c82fdb0bae774387a724838360405161274f9291906139e3565b60405180910390a250505b600073ffffffffffffffffffffffffffffffffffffffff168273ffffffffffffffffffffffffffffffffffffffff1614612833576000806127dc600860008673ffffffffffffffffffffffffffffffffffffffff1673ffffffffffffffffffffffffffffffffffffffff168152602001908152602001600020611701856122ee565b915091508373ffffffffffffffffffffffffffffffffffffffff167fdec2bacdd2f05b59de34da9b523dff8be42e5e38e818c82fdb0bae774387a72483836040516128289291906139e3565b60405180910390a250505b5b505050565b600083838346306040516020016128549594939291906135f3565b6040516020818303038152906040528051906020012090509392505050565b600060028284186128849190613abf565b8284166128919190613a69565b905092915050565b600082826040516020016128ae9291906134c5565b60405160208183030381529060405280519060200120905092915050565b6000807f7fffffffffffffffffffffffffffffff5d576e7357a4501ddfe92f46681b20a08360001c11156129075760006003915091506129d0565b601b8560ff161415801561291f5750601c8560ff1614155b156129315760006004915091506129d0565b6000600187878787604051600081526020016040526040516129569493929190613646565b6020604051602081039080840390855afa158015612978573d6000803e3d6000fd5b505050602060405103519050600073ffffffffffffffffffffffffffffffffffffffff168173ffffffffffffffffffffffffffffffffffffffff1614156129c7576000600192509250506129d0565b80600092509250505b94509492505050565b60006004811115612a13577f4e487b7100000000000000000000000000000000000000000000000000000000600052602160045260246000fd5b816004811115612a4c577f4e487b7100000000000000000000000000000000000000000000000000000000600052602160045260246000fd5b1415612a5757612d27565b60016004811115612a91577f4e487b7100000000000000000000000000000000000000000000000000000000600052602160045260246000fd5b816004811115612aca577f4e487b7100000000000000000000000000000000000000000000000000000000600052602160045260246000fd5b1415612b0b576040517f08c379a0000000000000000000000000000000000000000000000000000000008152600401612b02906136ad565b60405180910390fd5b60026004811115612b45577f4e487b7100000000000000000000000000000000000000000000000000000000600052602160045260246000fd5b816004811115612b7e577f4e487b7100000000000000000000000000000000000000000000000000000000600052602160045260246000fd5b1415612bbf576040517f08c379a0000000000000000000000000000000000000000000000000000000008152600401612bb69061374d565b60405180910390fd5b60036004811115612bf9577f4e487b7100000000000000000000000000000000000000000000000000000000600052602160045260246000fd5b816004811115612c32577f4e487b7100000000000000000000000000000000000000000000000000000000600052602160045260246000fd5b1415612c73576040517f08c379a0000000000000000000000000000000000000000000000000000000008152600401612c6a9061380d565b60405180910390fd5b600480811115612cac577f4e487b7100000000000000000000000000000000000000000000000000000000600052602160045260246000fd5b816004811115612ce5577f4e487b7100000000000000000000000000000000000000000000000000000000600052602160045260246000fd5b1415612d26576040517f08c379a0000000000000000000000000000000000000000000000000000000008152600401612d1d9061384d565b60405180910390fd5b5b50565b6001816000016000828254019250508190555050565b6040518060400160405280600063ffffffff16815260200160007bffffffffffffffffffffffffffffffffffffffffffffffffffffffff1681525090565b600081359050612d8d816142b7565b92915050565b600081359050612da2816142ce565b92915050565b600081359050612db7816142e5565b92915050565b600081359050612dcc816142fc565b92915050565b600081359050612de181614313565b92915050565b600060208284031215612df957600080fd5b6000612e0784828501612d7e565b91505092915050565b60008060408385031215612e2357600080fd5b6000612e3185828601612d7e565b9250506020612e4285828601612d7e565b9150509250929050565b600080600060608486031215612e6157600080fd5b6000612e6f86828701612d7e565b9350506020612e8086828701612d7e565b9250506040612e9186828701612da8565b9150509250925092565b600080600080600080600060e0888a031215612eb657600080fd5b6000612ec48a828b01612d7e565b9750506020612ed58a828b01612d7e565b9650506040612ee68a828b01612da8565b9550506060612ef78a828b01612da8565b9450506080612f088a828b01612dd2565b93505060a0612f198a828b01612d93565b92505060c0612f2a8a828b01612d93565b91505092959891949750929550565b60008060408385031215612f4c57600080fd5b6000612f5a85828601612d7e565b9250506020612f6b85828601612da8565b9150509250929050565b60008060008060008060c08789031215612f8e57600080fd5b6000612f9c89828a01612d7e565b9650506020612fad89828a01612da8565b9550506040612fbe89828a01612da8565b9450506060612fcf89828a01612dd2565b9350506080612fe089828a01612d93565b92505060a0612ff189828a01612d93565b9150509295509295509295565b6000806040838503121561301157600080fd5b600061301f85828601612d7e565b925050602061303085828601612dbd565b9150509250929050565b60006020828403121561304c57600080fd5b600061305a84828501612da8565b91505092915050565b61306c81613b24565b82525050565b61307b81613b36565b82525050565b61308a81613b42565b82525050565b6130a161309c82613b42565b613c20565b82525050565b60006130b282613a42565b6130bc8185613a4d565b93506130cc818560208601613bbb565b6130d581613cb7565b840191505092915050565b60006130ed601883613a4d565b91506130f882613cc8565b602082019050919050565b6000613110602383613a4d565b915061311b82613cf1565b604082019050919050565b6000613133601f83613a4d565b915061313e82613d40565b602082019050919050565b6000613156601483613a4d565b915061316182613d69565b602082019050919050565b6000613179601d83613a4d565b915061318482613d92565b602082019050919050565b600061319c601f83613a4d565b91506131a782613dbb565b602082019050919050565b60006131bf601983613a4d565b91506131ca82613de4565b602082019050919050565b60006131e2602683613a4d565b91506131ed82613e0d565b604082019050919050565b6000613205602283613a4d565b915061321082613e5c565b604082019050919050565b6000613228600283613a5e565b915061323382613eab565b600282019050919050565b600061324b601d83613a4d565b915061325682613ed4565b602082019050919050565b600061326e602683613a4d565b915061327982613efd565b604082019050919050565b6000613291602283613a4d565b915061329c82613f4c565b604082019050919050565b60006132b4601083613a4d565b91506132bf82613f9b565b602082019050919050565b60006132d7602283613a4d565b91506132e282613fc4565b604082019050919050565b60006132fa601e83613a4d565b915061330582614013565b602082019050919050565b600061331d602883613a4d565b91506133288261403c565b604082019050919050565b6000613340603083613a4d565b915061334b8261408b565b604082019050919050565b6000613363602083613a4d565b915061336e826140da565b602082019050919050565b6000613386602783613a4d565b915061339182614103565b604082019050919050565b60006133a9602583613a4d565b91506133b482614152565b604082019050919050565b60006133cc602683613a4d565b91506133d7826141a1565b604082019050919050565b60006133ef602483613a4d565b91506133fa826141f0565b604082019050919050565b6000613412602583613a4d565b915061341d8261423f565b604082019050919050565b6000613435601f83613a4d565b91506134408261428e565b602082019050919050565b6040820160008201516134616000850182613498565b506020820151613474602085018261347a565b50505050565b61348381613b6c565b82525050565b61349281613b94565b82525050565b6134a181613b9e565b82525050565b6134b081613b9e565b82525050565b6134bf81613bae565b82525050565b60006134d08261321b565b91506134dc8285613090565b6020820191506134ec8284613090565b6020820191508190509392505050565b60006020820190506135116000830184613063565b92915050565b600060208201905061352c6000830184613072565b92915050565b60006020820190506135476000830184613081565b92915050565b600060c0820190506135626000830189613081565b61356f6020830188613063565b61357c6040830187613063565b6135896060830186613489565b6135966080830185613489565b6135a360a0830184613489565b979650505050505050565b60006080820190506135c36000830187613081565b6135d06020830186613063565b6135dd6040830185613489565b6135ea6060830184613489565b95945050505050565b600060a0820190506136086000830188613081565b6136156020830187613081565b6136226040830186613081565b61362f6060830185613489565b61363c6080830184613063565b9695505050505050565b600060808201905061365b6000830187613081565b61366860208301866134b6565b6136756040830185613081565b6136826060830184613081565b95945050505050565b600060208201905081810360008301526136a581846130a7565b905092915050565b600060208201905081810360008301526136c6816130e0565b9050919050565b600060208201905081810360008301526136e681613103565b9050919050565b6000602082019050818103600083015261370681613126565b9050919050565b6000602082019050818103600083015261372681613149565b9050919050565b600060208201905081810360008301526137468161316c565b9050919050565b600060208201905081810360008301526137668161318f565b9050919050565b60006020820190508181036000830152613786816131b2565b9050919050565b600060208201905081810360008301526137a6816131d5565b9050919050565b600060208201905081810360008301526137c6816131f8565b9050919050565b600060208201905081810360008301526137e68161323e565b9050919050565b6000602082019050818103600083015261380681613261565b9050919050565b6000602082019050818103600083015261382681613284565b9050919050565b60006020820190508181036000830152613846816132a7565b9050919050565b60006020820190508181036000830152613866816132ca565b9050919050565b60006020820190508181036000830152613886816132ed565b9050919050565b600060208201905081810360008301526138a681613310565b9050919050565b600060208201905081810360008301526138c681613333565b9050919050565b600060208201905081810360008301526138e681613356565b9050919050565b6000602082019050818103600083015261390681613379565b9050919050565b600060208201905081810360008301526139268161339c565b9050919050565b60006020820190508181036000830152613946816133bf565b9050919050565b60006020820190508181036000830152613966816133e2565b9050919050565b6000602082019050818103600083015261398681613405565b9050919050565b600060208201905081810360008301526139a681613428565b9050919050565b60006040820190506139c2600083018461344b565b92915050565b60006020820190506139dd6000830184613489565b92915050565b60006040820190506139f86000830185613489565b613a056020830184613489565b9392505050565b6000602082019050613a2160008301846134a7565b92915050565b6000602082019050613a3c60008301846134b6565b92915050565b600081519050919050565b600082825260208201905092915050565b600081905092915050565b6000613a7482613b94565b9150613a7f83613b94565b9250827fffffffffffffffffffffffffffffffffffffffffffffffffffffffffffffffff03821115613ab457613ab3613c2a565b5b828201905092915050565b6000613aca82613b94565b9150613ad583613b94565b925082613ae557613ae4613c59565b5b828204905092915050565b6000613afb82613b94565b9150613b0683613b94565b925082821015613b1957613b18613c2a565b5b828203905092915050565b6000613b2f82613b4c565b9050919050565b60008115159050919050565b6000819050919050565b600073ffffffffffffffffffffffffffffffffffffffff82169050919050565b60007bffffffffffffffffffffffffffffffffffffffffffffffffffffffff82169050919050565b6000819050919050565b600063ffffffff82169050919050565b600060ff82169050919050565b60005b83811015613bd9578082015181840152602081019050613bbe565b83811115613be8576000848401525b50505050565b60006002820490506001821680613c0657607f821691505b60208210811415613c1a57613c19613c88565b5b50919050565b6000819050919050565b7f4e487b7100000000000000000000000000000000000000000000000000000000600052601160045260246000fd5b7f4e487b7100000000000000000000000000000000000000000000000000000000600052601260045260246000fd5b7f4e487b7100000000000000000000000000000000000000000000000000000000600052602260045260246000fd5b6000601f19601f8301169050919050565b7f45434453413a20696e76616c6964207369676e61747572650000000000000000600082015250565b7f45524332303a207472616e7366657220746f20746865207a65726f206164647260008201527f6573730000000000000000000000000000000000000000000000000000000000602082015250565b7f4552433230566f7465733a20626c6f636b206e6f7420796574206d696e656400600082015250565b7f5061757361626c653a206e6f7420706175736564000000000000000000000000600082015250565b7f4552433230566f7465733a207369676e61747572652065787069726564000000600082015250565b7f45434453413a20696e76616c6964207369676e6174757265206c656e67746800600082015250565b7f4552433230566f7465733a20696e76616c6964206e6f6e636500000000000000600082015250565b7f4f776e61626c653a206e6577206f776e657220697320746865207a65726f206160008201527f6464726573730000000000000000000000000000000000000000000000000000602082015250565b7f45524332303a20617070726f766520746f20746865207a65726f20616464726560008201527f7373000000000000000000000000000000000000000000000000000000000000602082015250565b7f1901000000000000000000000000000000000000000000000000000000000000600082015250565b7f45524332305065726d69743a206578706972656420646561646c696e65000000600082015250565b7f45524332303a207472616e7366657220616d6f756e742065786365656473206260008201527f616c616e63650000000000000000000000000000000000000000000000000000602082015250565b7f45434453413a20696e76616c6964207369676e6174757265202773272076616c60008201527f7565000000000000000000000000000000000000000000000000000000000000602082015250565b7f5061757361626c653a2070617573656400000000000000000000000000000000600082015250565b7f45434453413a20696e76616c6964207369676e6174757265202776272076616c60008201527f7565000000000000000000000000000000000000000000000000000000000000602082015250565b7f45524332305065726d69743a20696e76616c6964207369676e61747572650000600082015250565b7f45524332303a207472616e7366657220616d6f756e742065786365656473206160008201527f6c6c6f77616e6365000000000000000000000000000000000000000000000000602082015250565b7f4552433230566f7465733a20746f74616c20737570706c79207269736b73206f60008201527f766572666c6f77696e6720766f74657300000000000000000000000000000000602082015250565b7f4f776e61626c653a2063616c6c6572206973206e6f7420746865206f776e6572600082015250565b7f53616665436173743a2076616c756520646f65736e27742066697420696e203260008201527f3234206269747300000000000000000000000000000000000000000000000000602082015250565b7f45524332303a207472616e736665722066726f6d20746865207a65726f20616460008201527f6472657373000000000000000000000000000000000000000000000000000000602082015250565b7f53616665436173743a2076616c756520646f65736e27742066697420696e203360008201527f3220626974730000000000000000000000000000000000000000000000000000602082015250565b7f45524332303a20617070726f76652066726f6d20746865207a65726f2061646460008201527f7265737300000000000000000000000000000000000000000000000000000000602082015250565b7f45524332303a2064656372656173656420616c6c6f77616e63652062656c6f7760008201527f207a65726f000000000000000000000000000000000000000000000000000000602082015250565b7f45524332303a206d696e7420746f20746865207a65726f206164647265737300600082015250565b6142c081613b24565b81146142cb57600080fd5b50565b6142d781613b42565b81146142e257600080fd5b50565b6142ee81613b94565b81146142f957600080fd5b50565b61430581613b9e565b811461431057600080fd5b50565b61431c81613bae565b811461432757600080fd5b5056fea2646970667358221220222b95ebe21651f30314dac7abcc7cc81a7b0b29c00711898448cc99e8a1f7eb64736f6c63430008040033",
  "linkReferences": {},
  "deployedLinkReferences": {}
}